{
  "_format": "hh-sol-artifact-1",
  "contractName": "Challenge1",
  "sourceName": "contracts/Challenge1.sol",
  "abi": [
    {
      "inputs": [],
      "stateMutability": "nonpayable",
      "type": "constructor"
    },
    {
      "anonymous": false,
      "inputs": [
        {
          "indexed": false,
          "internalType": "string",
          "name": "name",
          "type": "string"
        },
        {
          "indexed": false,
          "internalType": "uint256",
          "name": "attack",
          "type": "uint256"
        },
        {
          "indexed": false,
          "internalType": "uint256",
          "name": "defense",
          "type": "uint256"
        }
      ],
      "name": "warriorCreated",
      "type": "event"
    },
    {
      "inputs": [
        {
          "internalType": "string",
          "name": "_name",
          "type": "string"
        },
        {
          "internalType": "uint256",
          "name": "_attack",
          "type": "uint256"
        },
        {
          "internalType": "uint256",
          "name": "_defense",
          "type": "uint256"
        }
      ],
      "name": "createWarrior",
      "outputs": [],
      "stateMutability": "nonpayable",
      "type": "function"
    },
    {
      "inputs": [
        {
          "internalType": "uint256",
          "name": "_id",
          "type": "uint256"
        }
      ],
      "name": "getOwnerOfWarrior",
      "outputs": [
        {
          "internalType": "address",
          "name": "ownerOfWarrior",
          "type": "address"
        }
      ],
      "stateMutability": "view",
      "type": "function"
    },
    {
      "inputs": [
        {
          "internalType": "uint256",
          "name": "_id",
          "type": "uint256"
        }
      ],
      "name": "getWarrior",
      "outputs": [
        {
          "components": [
            {
              "internalType": "string",
              "name": "name",
              "type": "string"
            },
            {
              "internalType": "uint256",
              "name": "attack",
              "type": "uint256"
            },
            {
              "internalType": "uint256",
              "name": "defense",
              "type": "uint256"
            }
          ],
          "internalType": "struct Challenge1.fakeWarrior",
          "name": "warrior",
          "type": "tuple"
        }
      ],
      "stateMutability": "view",
      "type": "function"
    },
    {
      "inputs": [],
      "name": "owner",
      "outputs": [
        {
          "internalType": "address",
          "name": "",
          "type": "address"
        }
      ],
      "stateMutability": "view",
      "type": "function"
    },
    {
      "inputs": [],
      "name": "tokenId",
      "outputs": [
        {
          "internalType": "uint256",
          "name": "",
          "type": "uint256"
        }
      ],
      "stateMutability": "view",
      "type": "function"
    },
    {
      "inputs": [
        {
          "internalType": "address",
          "name": "_addr",
          "type": "address"
        }
      ],
      "name": "whitelist",
      "outputs": [],
      "stateMutability": "nonpayable",
      "type": "function"
    }
  ],
  "bytecode": "0x608060405234801561001057600080fd5b5033600460006101000a81548173ffffffffffffffffffffffffffffffffffffffff021916908373ffffffffffffffffffffffffffffffffffffffff160217905550610df7806100616000396000f3fe608060405234801561001057600080fd5b50600436106100625760003560e01c806306d908dc1461006757806317d70f7c1461008357806329372ad0146100a15780632d722a69146100d15780638da5cb5b146101015780639b19251a1461011f575b600080fd5b610081600480360381019061007c919061075d565b61013b565b005b61008b610330565b6040516100989190610a63565b60405180910390f35b6100bb60048036038101906100b691906107c4565b610336565b6040516100c89190610a41565b60405180910390f35b6100eb60048036038101906100e691906107c4565b61044c565b6040516100f89190610968565b60405180910390f35b6101096104cd565b6040516101169190610968565b60405180910390f35b61013960048036038101906101349190610734565b6104f3565b005b818160648210801561014e57506103e881105b61018d576040517f08c379a0000000000000000000000000000000000000000000000000000000008152600401610184906109e1565b60405180910390fd5b600260003373ffffffffffffffffffffffffffffffffffffffff1673ffffffffffffffffffffffffffffffffffffffff16815260200190815260200160002060009054906101000a900460ff16610219576040517f08c379a0000000000000000000000000000000000000000000000000000000008152600401610210906109c1565b60405180910390fd5b6000604051806060016040528087815260200186815260200185815250905080600080600354815260200190815260200160002060008201518160000190805190602001906102699291906105de565b5060208201518160010155604082015181600201559050503360016000600354815260200190815260200160002060006101000a81548173ffffffffffffffffffffffffffffffffffffffff021916908373ffffffffffffffffffffffffffffffffffffffff160217905550600360008154809291906102e890610be2565b91905055507f5f027d26d10b354ac977b541b142ef5e86defed217154f0b33029d85f5a58e1a86868660405161032093929190610983565b60405180910390a1505050505050565b60035481565b61033e610664565b6003548210610382576040517f08c379a000000000000000000000000000000000000000000000000000000000815260040161037990610a01565b60405180910390fd5b6000808381526020019081526020016000206040518060600160405290816000820180546103af90610b7f565b80601f01602080910402602001604051908101604052809291908181526020018280546103db90610b7f565b80156104285780601f106103fd57610100808354040283529160200191610428565b820191906000526020600020905b81548152906001019060200180831161040b57829003601f168201915b50505050508152602001600182015481526020016002820154815250509050919050565b60006003548210610492576040517f08c379a000000000000000000000000000000000000000000000000000000000815260040161048990610a01565b60405180910390fd5b6001600083815260200190815260200160002060009054906101000a900473ffffffffffffffffffffffffffffffffffffffff169050919050565b600460009054906101000a900473ffffffffffffffffffffffffffffffffffffffff1681565b600460009054906101000a900473ffffffffffffffffffffffffffffffffffffffff1673ffffffffffffffffffffffffffffffffffffffff163373ffffffffffffffffffffffffffffffffffffffff1614610583576040517f08c379a000000000000000000000000000000000000000000000000000000000815260040161057a90610a21565b60405180910390fd5b6001600260008373ffffffffffffffffffffffffffffffffffffffff1673ffffffffffffffffffffffffffffffffffffffff16815260200190815260200160002060006101000a81548160ff02191690831515021790555050565b8280546105ea90610b7f565b90600052602060002090601f01602090048101928261060c5760008555610653565b82601f1061062557805160ff1916838001178555610653565b82800160010185558215610653579182015b82811115610652578251825591602001919060010190610637565b5b5090506106609190610685565b5090565b60405180606001604052806060815260200160008152602001600081525090565b5b8082111561069e576000816000905550600101610686565b5090565b60006106b56106b084610aa3565b610a7e565b9050828152602081018484840111156106cd57600080fd5b6106d8848285610b3d565b509392505050565b6000813590506106ef81610d93565b92915050565b600082601f83011261070657600080fd5b81356107168482602086016106a2565b91505092915050565b60008135905061072e81610daa565b92915050565b60006020828403121561074657600080fd5b6000610754848285016106e0565b91505092915050565b60008060006060848603121561077257600080fd5b600084013567ffffffffffffffff81111561078c57600080fd5b610798868287016106f5565b93505060206107a98682870161071f565b92505060406107ba8682870161071f565b9150509250925092565b6000602082840312156107d657600080fd5b60006107e48482850161071f565b91505092915050565b6107f681610b01565b82525050565b600061080782610ad4565b6108118185610adf565b9350610821818560208601610b4c565b61082a81610cb8565b840191505092915050565b600061084082610ad4565b61084a8185610af0565b935061085a818560208601610b4c565b61086381610cb8565b840191505092915050565b600061087b602a83610af0565b915061088682610cc9565b604082019050919050565b600061089e601283610af0565b91506108a982610d18565b602082019050919050565b60006108c1601283610af0565b91506108cc82610d41565b602082019050919050565b60006108e4600983610af0565b91506108ef82610d6a565b602082019050919050565b6000606083016000830151848203600086015261091782826107fc565b915050602083015161092c602086018261094a565b50604083015161093f604086018261094a565b508091505092915050565b61095381610b33565b82525050565b61096281610b33565b82525050565b600060208201905061097d60008301846107ed565b92915050565b6000606082019050818103600083015261099d8186610835565b90506109ac6020830185610959565b6109b96040830184610959565b949350505050565b600060208201905081810360008301526109da8161086e565b9050919050565b600060208201905081810360008301526109fa81610891565b9050919050565b60006020820190508181036000830152610a1a816108b4565b9050919050565b60006020820190508181036000830152610a3a816108d7565b9050919050565b60006020820190508181036000830152610a5b81846108fa565b905092915050565b6000602082019050610a786000830184610959565b92915050565b6000610a88610a99565b9050610a948282610bb1565b919050565b6000604051905090565b600067ffffffffffffffff821115610abe57610abd610c89565b5b610ac782610cb8565b9050602081019050919050565b600081519050919050565b600082825260208201905092915050565b600082825260208201905092915050565b6000610b0c82610b13565b9050919050565b600073ffffffffffffffffffffffffffffffffffffffff82169050919050565b6000819050919050565b82818337600083830152505050565b60005b83811015610b6a578082015181840152602081019050610b4f565b83811115610b79576000848401525b50505050565b60006002820490506001821680610b9757607f821691505b60208210811415610bab57610baa610c5a565b5b50919050565b610bba82610cb8565b810181811067ffffffffffffffff82111715610bd957610bd8610c89565b5b80604052505050565b6000610bed82610b33565b91507fffffffffffffffffffffffffffffffffffffffffffffffffffffffffffffffff821415610c2057610c1f610c2b565b5b600182019050919050565b7f4e487b7100000000000000000000000000000000000000000000000000000000600052601160045260246000fd5b7f4e487b7100000000000000000000000000000000000000000000000000000000600052602260045260246000fd5b7f4e487b7100000000000000000000000000000000000000000000000000000000600052604160045260246000fd5b6000601f19601f8301169050919050565b7f4f6e6c792077686974656c69737465642075736572732063616e20637265617460008201527f652077617272696f727300000000000000000000000000000000000000000000602082015250565b7f496e76616c696420617474726962757465730000000000000000000000000000600082015250565b7f496e76616c69642077617272696f722069640000000000000000000000000000600082015250565b7f6e6f74206f776e65720000000000000000000000000000000000000000000000600082015250565b610d9c81610b01565b8114610da757600080fd5b50565b610db381610b33565b8114610dbe57600080fd5b5056fea264697066735822122009e23b3d36bf1d8ae734e8f5d87274aee1896f88cf4c95d1e610213227295f4864736f6c63430008040033",
  "linkReferences": {},
  "deployedLinkReferences": {}
}